{"contracts/HelloWorld.sol":{"HelloWorld":{"abi":[{"inputs":[],"stateMutability":"nonpayable","type":"constructor"},{"anonymous":false,"inputs":[{"indexed":false,"internalType":"string","name":"newMessage","type":"string"},{"indexed":false,"internalType":"address","name":"updatedBy","type":"address"}],"name":"MessageUpdated","type":"event"},{"inputs":[],"name":"getMessage","outputs":[{"internalType":"string","name":"","type":"string"}],"stateMutability":"view","type":"function"},{"inputs":[],"name":"getOwner","outputs":[{"internalType":"address","name":"","type":"address"}],"stateMutability":"view","type":"function"},{"inputs":[],"name":"greet","outputs":[{"internalType":"string","name":"","type":"string"}],"stateMutability":"view","type":"function"},{"inputs":[],"name":"message","outputs":[{"internalType":"string","name":"","type":"string"}],"stateMutability":"view","type":"function"},{"inputs":[],"name":"owner","outputs":[{"internalType":"address","name":"","type":"address"}],"stateMutability":"view","type":"function"},{"inputs":[{"internalType":"string","name":"newMessage","type":"string"}],"name":"updateMessage","outputs":[],"stateMutability":"nonpayable","type":"function"}],"evm":{"bytecode":{"linkReferences":{},"object":"608060405234801561001057600080fd5b5060408051808201909152601181527048656c6c6f2c20556d6920576f726c642160781b602082015260009061004690826100fd565b50600180546001600160a01b031916331790556101bb565b634e487b7160e01b600052604160045260246000fd5b600181811c9082168061008857607f821691505b6020821081036100a857634e487b7160e01b600052602260045260246000fd5b50919050565b601f8211156100f857806000526020600020601f840160051c810160208510156100d55750805b601f840160051c820191505b818110156100f557600081556001016100e1565b50505b505050565b81516001600160401b038111156101165761011661005e565b61012a816101248454610074565b846100ae565b6020601f82116001811461015e57600083156101465750848201515b600019600385901b1c1916600184901b1784556100f5565b600084815260208120601f198516915b8281101561018e578785015182556020948501946001909201910161016e565b50848210156101ac5786840151600019600387901b60f8161c191681555b50505050600190811b01905550565b610636806101ca6000396000f3fe608060405234801561001057600080fd5b50600436106100625760003560e01c80631923be2414610067578063893d20e81461007c5780638da5cb5b146100a6578063ce6d41de146100b9578063cfae3217146100ce578063e21f37ce146100d6575b600080fd5b61007a6100753660046102e3565b6100de565b005b6001546001600160a01b03165b6040516001600160a01b0390911681526020015b60405180910390f35b600154610089906001600160a01b031681565b6100c1610185565b60405161009d91906103e2565b6100c1610217565b6100c161023f565b6001546001600160a01b0316331461013c5760405162461bcd60e51b815260206004820152601d60248201527f4f6e6c79206f776e65722063616e20757064617465206d657373616765000000604482015260640160405180910390fd5b60006101488282610485565b507ff698274c763364531193e20038371a4660026b8b139255b9e7629629162f3448813360405161017a929190610544565b60405180910390a150565b606060008054610194906103fc565b80601f01602080910402602001604051908101604052809291908181526020018280546101c0906103fc565b801561020d5780601f106101e25761010080835404028352916020019161020d565b820191906000526020600020905b8154815290600101906020018083116101f057829003601f168201915b5050505050905090565b6060600060405160200161022b919061056e565b604051602081830303815290604052905090565b6000805461024c906103fc565b80601f0160208091040260200160405190810160405280929190818152602001828054610278906103fc565b80156102c55780601f1061029a576101008083540402835291602001916102c5565b820191906000526020600020905b8154815290600101906020018083116102a857829003601f168201915b505050505081565b634e487b7160e01b600052604160045260246000fd5b6000602082840312156102f557600080fd5b813567ffffffffffffffff81111561030c57600080fd5b8201601f8101841361031d57600080fd5b803567ffffffffffffffff811115610337576103376102cd565b604051601f8201601f19908116603f0116810167ffffffffffffffff81118282101715610366576103666102cd565b60405281815282820160200186101561037e57600080fd5b81602084016020830137600091810160200191909152949350505050565b6000815180845260005b818110156103c2576020818501810151868301820152016103a6565b506000602082860101526020601f19601f83011685010191505092915050565b6020815260006103f5602083018461039c565b9392505050565b600181811c9082168061041057607f821691505b60208210810361043057634e487b7160e01b600052602260045260246000fd5b50919050565b601f82111561048057806000526020600020601f840160051c8101602085101561045d5750805b601f840160051c820191505b8181101561047d5760008155600101610469565b50505b505050565b815167ffffffffffffffff81111561049f5761049f6102cd565b6104b3816104ad84546103fc565b84610436565b6020601f8211600181146104e757600083156104cf5750848201515b600019600385901b1c1916600184901b17845561047d565b600084815260208120601f198516915b8281101561051757878501518255602094850194600190920191016104f7565b50848210156105355786840151600019600387901b60f8161c191681555b50505050600190811b01905550565b604081526000610557604083018561039c565b905060018060a01b03831660208301529392505050565b6a02432b6363790333937b6960ad1b8152600080835461058d816103fc565b6001821680156105a457600181146105bf576105f5565b60ff198316600b870152600b821515830287010193506105f5565b86600052602060002060005b838110156105ea578154888201600b01526001909101906020016105cb565b5050600b8287010193505b50919594505050505056fea26469706673582212206e1a38877e8ce6e9b9ef2bcef1ffd56db73f1d97e6cb5ef0ac955f6b27e2203064736f6c634300081c0033","opcodes":"PUSH1 0x80 PUSH1 0x40 MSTORE CALLVALUE DUP1 ISZERO PUSH2 0x10 JUMPI PUSH1 0x0 DUP1 REVERT JUMPDEST POP PUSH1 0x40 DUP1 MLOAD DUP1 DUP3 ADD SWAP1 SWAP2 MSTORE PUSH1 0x11 DUP2 MSTORE PUSH17 0x48656C6C6F2C20556D6920576F726C6421 PUSH1 0x78 SHL PUSH1 0x20 DUP3 ADD MSTORE PUSH1 0x0 SWAP1 PUSH2 0x46 SWAP1 DUP3 PUSH2 0xFD JUMP JUMPDEST POP PUSH1 0x1 DUP1 SLOAD PUSH1 0x1 PUSH1 0x1 PUSH1 0xA0 SHL SUB NOT AND CALLER OR SWAP1 SSTORE PUSH2 0x1BB JUMP JUMPDEST PUSH4 0x4E487B71 PUSH1 0xE0 SHL PUSH1 0x0 MSTORE PUSH1 0x41 PUSH1 0x4 MSTORE PUSH1 0x24 PUSH1 0x0 REVERT JUMPDEST PUSH1 0x1 DUP2 DUP2 SHR SWAP1 DUP3 AND DUP1 PUSH2 0x88 JUMPI PUSH1 0x7F DUP3 AND SWAP2 POP JUMPDEST PUSH1 0x20 DUP3 LT DUP2 SUB PUSH2 0xA8 JUMPI PUSH4 0x4E487B71 PUSH1 0xE0 SHL PUSH1 0x0 MSTORE PUSH1 0x22 PUSH1 0x4 MSTORE PUSH1 0x24 PUSH1 0x0 REVERT JUMPDEST POP SWAP2 SWAP1 POP JUMP JUMPDEST PUSH1 0x1F DUP3 GT ISZERO PUSH2 0xF8 JUMPI DUP1 PUSH1 0x0 MSTORE PUSH1 0x20 PUSH1 0x0 KECCAK256 PUSH1 0x1F DUP5 ADD PUSH1 0x5 SHR DUP2 ADD PUSH1 0x20 DUP6 LT ISZERO PUSH2 0xD5 JUMPI POP DUP1 JUMPDEST PUSH1 0x1F DUP5 ADD PUSH1 0x5 SHR DUP3 ADD SWAP2 POP JUMPDEST DUP2 DUP2 LT ISZERO PUSH2 0xF5 JUMPI PUSH1 0x0 DUP2 SSTORE PUSH1 0x1 ADD PUSH2 0xE1 JUMP JUMPDEST POP POP JUMPDEST POP POP POP JUMP JUMPDEST DUP2 MLOAD PUSH1 0x1 PUSH1 0x1 PUSH1 0x40 SHL SUB DUP2 GT ISZERO PUSH2 0x116 JUMPI PUSH2 0x116 PUSH2 0x5E JUMP JUMPDEST PUSH2 0x12A DUP2 PUSH2 0x124 DUP5 SLOAD PUSH2 0x74 JUMP JUMPDEST DUP5 PUSH2 0xAE JUMP JUMPDEST PUSH1 0x20 PUSH1 0x1F DUP3 GT PUSH1 0x1 DUP2 EQ PUSH2 0x15E JUMPI PUSH1 0x0 DUP4 ISZERO PUSH2 0x146 JUMPI POP DUP5 DUP3 ADD MLOAD JUMPDEST PUSH1 0x0 NOT PUSH1 0x3 DUP6 SWAP1 SHL SHR NOT AND PUSH1 0x1 DUP5 SWAP1 SHL OR DUP5 SSTORE PUSH2 0xF5 JUMP JUMPDEST PUSH1 0x0 DUP5 DUP2 MSTORE PUSH1 0x20 DUP2 KECCAK256 PUSH1 0x1F NOT DUP6 AND SWAP2 JUMPDEST DUP3 DUP2 LT ISZERO PUSH2 0x18E JUMPI DUP8 DUP6 ADD MLOAD DUP3 SSTORE PUSH1 0x20 SWAP5 DUP6 ADD SWAP5 PUSH1 0x1 SWAP1 SWAP3 ADD SWAP2 ADD PUSH2 0x16E JUMP JUMPDEST POP DUP5 DUP3 LT ISZERO PUSH2 0x1AC JUMPI DUP7 DUP5 ADD MLOAD PUSH1 0x0 NOT PUSH1 0x3 DUP8 SWAP1 SHL PUSH1 0xF8 AND SHR NOT AND DUP2 SSTORE JUMPDEST POP POP POP POP PUSH1 0x1 SWAP1 DUP2 SHL ADD SWAP1 SSTORE POP JUMP JUMPDEST PUSH2 0x636 DUP1 PUSH2 0x1CA PUSH1 0x0 CODECOPY PUSH1 0x0 RETURN INVALID PUSH1 0x80 PUSH1 0x40 MSTORE CALLVALUE DUP1 ISZERO PUSH2 0x10 JUMPI PUSH1 0x0 DUP1 REVERT JUMPDEST POP PUSH1 0x4 CALLDATASIZE LT PUSH2 0x62 JUMPI PUSH1 0x0 CALLDATALOAD PUSH1 0xE0 SHR DUP1 PUSH4 0x1923BE24 EQ PUSH2 0x67 JUMPI DUP1 PUSH4 0x893D20E8 EQ PUSH2 0x7C JUMPI DUP1 PUSH4 0x8DA5CB5B EQ PUSH2 0xA6 JUMPI DUP1 PUSH4 0xCE6D41DE EQ PUSH2 0xB9 JUMPI DUP1 PUSH4 0xCFAE3217 EQ PUSH2 0xCE JUMPI DUP1 PUSH4 0xE21F37CE EQ PUSH2 0xD6 JUMPI JUMPDEST PUSH1 0x0 DUP1 REVERT JUMPDEST PUSH2 0x7A PUSH2 0x75 CALLDATASIZE PUSH1 0x4 PUSH2 0x2E3 JUMP JUMPDEST PUSH2 0xDE JUMP JUMPDEST STOP JUMPDEST PUSH1 0x1 SLOAD PUSH1 0x1 PUSH1 0x1 PUSH1 0xA0 SHL SUB AND JUMPDEST PUSH1 0x40 MLOAD PUSH1 0x1 PUSH1 0x1 PUSH1 0xA0 SHL SUB SWAP1 SWAP2 AND DUP2 MSTORE PUSH1 0x20 ADD JUMPDEST PUSH1 0x40 MLOAD DUP1 SWAP2 SUB SWAP1 RETURN JUMPDEST PUSH1 0x1 SLOAD PUSH2 0x89 SWAP1 PUSH1 0x1 PUSH1 0x1 PUSH1 0xA0 SHL SUB AND DUP2 JUMP JUMPDEST PUSH2 0xC1 PUSH2 0x185 JUMP JUMPDEST PUSH1 0x40 MLOAD PUSH2 0x9D SWAP2 SWAP1 PUSH2 0x3E2 JUMP JUMPDEST PUSH2 0xC1 PUSH2 0x217 JUMP JUMPDEST PUSH2 0xC1 PUSH2 0x23F JUMP JUMPDEST PUSH1 0x1 SLOAD PUSH1 0x1 PUSH1 0x1 PUSH1 0xA0 SHL SUB AND CALLER EQ PUSH2 0x13C JUMPI PUSH1 0x40 MLOAD PUSH3 0x461BCD PUSH1 0xE5 SHL DUP2 MSTORE PUSH1 0x20 PUSH1 0x4 DUP3 ADD MSTORE PUSH1 0x1D PUSH1 0x24 DUP3 ADD MSTORE PUSH32 0x4F6E6C79206F776E65722063616E20757064617465206D657373616765000000 PUSH1 0x44 DUP3 ADD MSTORE PUSH1 0x64 ADD PUSH1 0x40 MLOAD DUP1 SWAP2 SUB SWAP1 REVERT JUMPDEST PUSH1 0x0 PUSH2 0x148 DUP3 DUP3 PUSH2 0x485 JUMP JUMPDEST POP PUSH32 0xF698274C763364531193E20038371A4660026B8B139255B9E7629629162F3448 DUP2 CALLER PUSH1 0x40 MLOAD PUSH2 0x17A SWAP3 SWAP2 SWAP1 PUSH2 0x544 JUMP JUMPDEST PUSH1 0x40 MLOAD DUP1 SWAP2 SUB SWAP1 LOG1 POP JUMP JUMPDEST PUSH1 0x60 PUSH1 0x0 DUP1 SLOAD PUSH2 0x194 SWAP1 PUSH2 0x3FC JUMP JUMPDEST DUP1 PUSH1 0x1F ADD PUSH1 0x20 DUP1 SWAP2 DIV MUL PUSH1 0x20 ADD PUSH1 0x40 MLOAD SWAP1 DUP2 ADD PUSH1 0x40 MSTORE DUP1 SWAP3 SWAP2 SWAP1 DUP2 DUP2 MSTORE PUSH1 0x20 ADD DUP3 DUP1 SLOAD PUSH2 0x1C0 SWAP1 PUSH2 0x3FC JUMP JUMPDEST DUP1 ISZERO PUSH2 0x20D JUMPI DUP1 PUSH1 0x1F LT PUSH2 0x1E2 JUMPI PUSH2 0x100 DUP1 DUP4 SLOAD DIV MUL DUP4 MSTORE SWAP2 PUSH1 0x20 ADD SWAP2 PUSH2 0x20D JUMP JUMPDEST DUP3 ADD SWAP2 SWAP1 PUSH1 0x0 MSTORE PUSH1 0x20 PUSH1 0x0 KECCAK256 SWAP1 JUMPDEST DUP2 SLOAD DUP2 MSTORE SWAP1 PUSH1 0x1 ADD SWAP1 PUSH1 0x20 ADD DUP1 DUP4 GT PUSH2 0x1F0 JUMPI DUP3 SWAP1 SUB PUSH1 0x1F AND DUP3 ADD SWAP2 JUMPDEST POP POP POP POP POP SWAP1 POP SWAP1 JUMP JUMPDEST PUSH1 0x60 PUSH1 0x0 PUSH1 0x40 MLOAD PUSH1 0x20 ADD PUSH2 0x22B SWAP2 SWAP1 PUSH2 0x56E JUMP JUMPDEST PUSH1 0x40 MLOAD PUSH1 0x20 DUP2 DUP4 SUB SUB DUP2 MSTORE SWAP1 PUSH1 0x40 MSTORE SWAP1 POP SWAP1 JUMP JUMPDEST PUSH1 0x0 DUP1 SLOAD PUSH2 0x24C SWAP1 PUSH2 0x3FC JUMP JUMPDEST DUP1 PUSH1 0x1F ADD PUSH1 0x20 DUP1 SWAP2 DIV MUL PUSH1 0x20 ADD PUSH1 0x40 MLOAD SWAP1 DUP2 ADD PUSH1 0x40 MSTORE DUP1 SWAP3 SWAP2 SWAP1 DUP2 DUP2 MSTORE PUSH1 0x20 ADD DUP3 DUP1 SLOAD PUSH2 0x278 SWAP1 PUSH2 0x3FC JUMP JUMPDEST DUP1 ISZERO PUSH2 0x2C5 JUMPI DUP1 PUSH1 0x1F LT PUSH2 0x29A JUMPI PUSH2 0x100 DUP1 DUP4 SLOAD DIV MUL DUP4 MSTORE SWAP2 PUSH1 0x20 ADD SWAP2 PUSH2 0x2C5 JUMP JUMPDEST DUP3 ADD SWAP2 SWAP1 PUSH1 0x0 MSTORE PUSH1 0x20 PUSH1 0x0 KECCAK256 SWAP1 JUMPDEST DUP2 SLOAD DUP2 MSTORE SWAP1 PUSH1 0x1 ADD SWAP1 PUSH1 0x20 ADD DUP1 DUP4 GT PUSH2 0x2A8 JUMPI DUP3 SWAP1 SUB PUSH1 0x1F AND DUP3 ADD SWAP2 JUMPDEST POP POP POP POP POP DUP2 JUMP JUMPDEST PUSH4 0x4E487B71 PUSH1 0xE0 SHL PUSH1 0x0 MSTORE PUSH1 0x41 PUSH1 0x4 MSTORE PUSH1 0x24 PUSH1 0x0 REVERT JUMPDEST PUSH1 0x0 PUSH1 0x20 DUP3 DUP5 SUB SLT ISZERO PUSH2 0x2F5 JUMPI PUSH1 0x0 DUP1 REVERT JUMPDEST DUP2 CALLDATALOAD PUSH8 0xFFFFFFFFFFFFFFFF DUP2 GT ISZERO PUSH2 0x30C JUMPI PUSH1 0x0 DUP1 REVERT JUMPDEST DUP3 ADD PUSH1 0x1F DUP2 ADD DUP5 SGT PUSH2 0x31D JUMPI PUSH1 0x0 DUP1 REVERT JUMPDEST DUP1 CALLDATALOAD PUSH8 0xFFFFFFFFFFFFFFFF DUP2 GT ISZERO PUSH2 0x337 JUMPI PUSH2 0x337 PUSH2 0x2CD JUMP JUMPDEST PUSH1 0x40 MLOAD PUSH1 0x1F DUP3 ADD PUSH1 0x1F NOT SWAP1 DUP2 AND PUSH1 0x3F ADD AND DUP2 ADD PUSH8 0xFFFFFFFFFFFFFFFF DUP2 GT DUP3 DUP3 LT OR ISZERO PUSH2 0x366 JUMPI PUSH2 0x366 PUSH2 0x2CD JUMP JUMPDEST PUSH1 0x40 MSTORE DUP2 DUP2 MSTORE DUP3 DUP3 ADD PUSH1 0x20 ADD DUP7 LT ISZERO PUSH2 0x37E JUMPI PUSH1 0x0 DUP1 REVERT JUMPDEST DUP2 PUSH1 0x20 DUP5 ADD PUSH1 0x20 DUP4 ADD CALLDATACOPY PUSH1 0x0 SWAP2 DUP2 ADD PUSH1 0x20 ADD SWAP2 SWAP1 SWAP2 MSTORE SWAP5 SWAP4 POP POP POP POP JUMP JUMPDEST PUSH1 0x0 DUP2 MLOAD DUP1 DUP5 MSTORE PUSH1 0x0 JUMPDEST DUP2 DUP2 LT ISZERO PUSH2 0x3C2 JUMPI PUSH1 0x20 DUP2 DUP6 ADD DUP2 ADD MLOAD DUP7 DUP4 ADD DUP3 ADD MSTORE ADD PUSH2 0x3A6 JUMP JUMPDEST POP PUSH1 0x0 PUSH1 0x20 DUP3 DUP7 ADD ADD MSTORE PUSH1 0x20 PUSH1 0x1F NOT PUSH1 0x1F DUP4 ADD AND DUP6 ADD ADD SWAP2 POP POP SWAP3 SWAP2 POP POP JUMP JUMPDEST PUSH1 0x20 DUP2 MSTORE PUSH1 0x0 PUSH2 0x3F5 PUSH1 0x20 DUP4 ADD DUP5 PUSH2 0x39C JUMP JUMPDEST SWAP4 SWAP3 POP POP POP JUMP JUMPDEST PUSH1 0x1 DUP2 DUP2 SHR SWAP1 DUP3 AND DUP1 PUSH2 0x410 JUMPI PUSH1 0x7F DUP3 AND SWAP2 POP JUMPDEST PUSH1 0x20 DUP3 LT DUP2 SUB PUSH2 0x430 JUMPI PUSH4 0x4E487B71 PUSH1 0xE0 SHL PUSH1 0x0 MSTORE PUSH1 0x22 PUSH1 0x4 MSTORE PUSH1 0x24 PUSH1 0x0 REVERT JUMPDEST POP SWAP2 SWAP1 POP JUMP JUMPDEST PUSH1 0x1F DUP3 GT ISZERO PUSH2 0x480 JUMPI DUP1 PUSH1 0x0 MSTORE PUSH1 0x20 PUSH1 0x0 KECCAK256 PUSH1 0x1F DUP5 ADD PUSH1 0x5 SHR DUP2 ADD PUSH1 0x20 DUP6 LT ISZERO PUSH2 0x45D JUMPI POP DUP1 JUMPDEST PUSH1 0x1F DUP5 ADD PUSH1 0x5 SHR DUP3 ADD SWAP2 POP JUMPDEST DUP2 DUP2 LT ISZERO PUSH2 0x47D JUMPI PUSH1 0x0 DUP2 SSTORE PUSH1 0x1 ADD PUSH2 0x469 JUMP JUMPDEST POP POP JUMPDEST POP POP POP JUMP JUMPDEST DUP2 MLOAD PUSH8 0xFFFFFFFFFFFFFFFF DUP2 GT ISZERO PUSH2 0x49F JUMPI PUSH2 0x49F PUSH2 0x2CD JUMP JUMPDEST PUSH2 0x4B3 DUP2 PUSH2 0x4AD DUP5 SLOAD PUSH2 0x3FC JUMP JUMPDEST DUP5 PUSH2 0x436 JUMP JUMPDEST PUSH1 0x20 PUSH1 0x1F DUP3 GT PUSH1 0x1 DUP2 EQ PUSH2 0x4E7 JUMPI PUSH1 0x0 DUP4 ISZERO PUSH2 0x4CF JUMPI POP DUP5 DUP3 ADD MLOAD JUMPDEST PUSH1 0x0 NOT PUSH1 0x3 DUP6 SWAP1 SHL SHR NOT AND PUSH1 0x1 DUP5 SWAP1 SHL OR DUP5 SSTORE PUSH2 0x47D JUMP JUMPDEST PUSH1 0x0 DUP5 DUP2 MSTORE PUSH1 0x20 DUP2 KECCAK256 PUSH1 0x1F NOT DUP6 AND SWAP2 JUMPDEST DUP3 DUP2 LT ISZERO PUSH2 0x517 JUMPI DUP8 DUP6 ADD MLOAD DUP3 SSTORE PUSH1 0x20 SWAP5 DUP6 ADD SWAP5 PUSH1 0x1 SWAP1 SWAP3 ADD SWAP2 ADD PUSH2 0x4F7 JUMP JUMPDEST POP DUP5 DUP3 LT ISZERO PUSH2 0x535 JUMPI DUP7 DUP5 ADD MLOAD PUSH1 0x0 NOT PUSH1 0x3 DUP8 SWAP1 SHL PUSH1 0xF8 AND SHR NOT AND DUP2 SSTORE JUMPDEST POP POP POP POP PUSH1 0x1 SWAP1 DUP2 SHL ADD SWAP1 SSTORE POP JUMP JUMPDEST PUSH1 0x40 DUP2 MSTORE PUSH1 0x0 PUSH2 0x557 PUSH1 0x40 DUP4 ADD DUP6 PUSH2 0x39C JUMP JUMPDEST SWAP1 POP PUSH1 0x1 DUP1 PUSH1 0xA0 SHL SUB DUP4 AND PUSH1 0x20 DUP4 ADD MSTORE SWAP4 SWAP3 POP POP POP JUMP JUMPDEST PUSH11 0x2432B6363790333937B69 PUSH1 0xAD SHL DUP2 MSTORE PUSH1 0x0 DUP1 DUP4 SLOAD PUSH2 0x58D DUP2 PUSH2 0x3FC JUMP JUMPDEST PUSH1 0x1 DUP3 AND DUP1 ISZERO PUSH2 0x5A4 JUMPI PUSH1 0x1 DUP2 EQ PUSH2 0x5BF JUMPI PUSH2 0x5F5 JUMP JUMPDEST PUSH1 0xFF NOT DUP4 AND PUSH1 0xB DUP8 ADD MSTORE PUSH1 0xB DUP3 ISZERO ISZERO DUP4 MUL DUP8 ADD ADD SWAP4 POP PUSH2 0x5F5 JUMP JUMPDEST DUP7 PUSH1 0x0 MSTORE PUSH1 0x20 PUSH1 0x0 KECCAK256 PUSH1 0x0 JUMPDEST DUP4 DUP2 LT ISZERO PUSH2 0x5EA JUMPI DUP2 SLOAD DUP9 DUP3 ADD PUSH1 0xB ADD MSTORE PUSH1 0x1 SWAP1 SWAP2 ADD SWAP1 PUSH1 0x20 ADD PUSH2 0x5CB JUMP JUMPDEST POP POP PUSH1 0xB DUP3 DUP8 ADD ADD SWAP4 POP JUMPDEST POP SWAP2 SWAP6 SWAP5 POP POP POP POP POP JUMP INVALID LOG2 PUSH5 0x6970667358 0x22 SLT KECCAK256 PUSH15 0x1A38877E8CE6E9B9EF2BCEF1FFD56D 0xB7 EXTCODEHASH SAR SWAP8 0xE6 0xCB MCOPY CREATE 0xAC SWAP6 PUSH0 PUSH12 0x27E2203064736F6C63430008 SHR STOP CALLER "},"methodIdentifiers":{"getMessage()":"ce6d41de","getOwner()":"893d20e8","greet()":"cfae3217","message()":"e21f37ce","owner()":"8da5cb5b","updateMessage(string)":"1923be24"}}}}}