{
  "_format": "hh-sol-artifact-1",
  "contractName": "HelloWorld",
  "sourceName": "test-contracts/HelloWorld.sol",
  "abi": [
    {
      "inputs": [],
      "stateMutability": "nonpayable",
      "type": "constructor"
    },
    {
      "anonymous": false,
      "inputs": [
        {
          "indexed": false,
          "internalType": "string",
          "name": "newMessage",
          "type": "string"
        },
        {
          "indexed": false,
          "internalType": "address",
          "name": "updatedBy",
          "type": "address"
        }
      ],
      "name": "MessageUpdated",
      "type": "event"
    },
    {
      "inputs": [],
      "name": "getMessage",
      "outputs": [
        {
          "internalType": "string",
          "name": "",
          "type": "string"
        }
      ],
      "stateMutability": "view",
      "type": "function"
    },
    {
      "inputs": [],
      "name": "getOwner",
      "outputs": [
        {
          "internalType": "address",
          "name": "",
          "type": "address"
        }
      ],
      "stateMutability": "view",
      "type": "function"
    },
    {
      "inputs": [],
      "name": "greet",
      "outputs": [
        {
          "internalType": "string",
          "name": "",
          "type": "string"
        }
      ],
      "stateMutability": "view",
      "type": "function"
    },
    {
      "inputs": [],
      "name": "message",
      "outputs": [
        {
          "internalType": "string",
          "name": "",
          "type": "string"
        }
      ],
      "stateMutability": "view",
      "type": "function"
    },
    {
      "inputs": [],
      "name": "owner",
      "outputs": [
        {
          "internalType": "address",
          "name": "",
          "type": "address"
        }
      ],
      "stateMutability": "view",
      "type": "function"
    },
    {
      "inputs": [
        {
          "internalType": "string",
          "name": "newMessage",
          "type": "string"
        }
      ],
      "name": "updateMessage",
      "outputs": [],
      "stateMutability": "nonpayable",
      "type": "function"
    }
  ],
  "bytecode": "0x608060405234801561001057600080fd5b5060408051808201909152601181527048656c6c6f2c20556d6920576f726c642160781b602082015260009061004690826100fd565b50600180546001600160a01b031916331790556101bb565b634e487b7160e01b600052604160045260246000fd5b600181811c9082168061008857607f821691505b6020821081036100a857634e487b7160e01b600052602260045260246000fd5b50919050565b601f8211156100f857806000526020600020601f840160051c810160208510156100d55750805b601f840160051c820191505b818110156100f557600081556001016100e1565b50505b505050565b81516001600160401b038111156101165761011661005e565b61012a816101248454610074565b846100ae565b6020601f82116001811461015e57600083156101465750848201515b600019600385901b1c1916600184901b1784556100f5565b600084815260208120601f198516915b8281101561018e578785015182556020948501946001909201910161016e565b50848210156101ac5786840151600019600387901b60f8161c191681555b50505050600190811b01905550565b610636806101ca6000396000f3fe608060405234801561001057600080fd5b50600436106100625760003560e01c80631923be2414610067578063893d20e81461007c5780638da5cb5b146100a6578063ce6d41de146100b9578063cfae3217146100ce578063e21f37ce146100d6575b600080fd5b61007a6100753660046102e3565b6100de565b005b6001546001600160a01b03165b6040516001600160a01b0390911681526020015b60405180910390f35b600154610089906001600160a01b031681565b6100c1610185565b60405161009d91906103e2565b6100c1610217565b6100c161023f565b6001546001600160a01b0316331461013c5760405162461bcd60e51b815260206004820152601d60248201527f4f6e6c79206f776e65722063616e20757064617465206d657373616765000000604482015260640160405180910390fd5b60006101488282610485565b507ff698274c763364531193e20038371a4660026b8b139255b9e7629629162f3448813360405161017a929190610544565b60405180910390a150565b606060008054610194906103fc565b80601f01602080910402602001604051908101604052809291908181526020018280546101c0906103fc565b801561020d5780601f106101e25761010080835404028352916020019161020d565b820191906000526020600020905b8154815290600101906020018083116101f057829003601f168201915b5050505050905090565b6060600060405160200161022b919061056e565b604051602081830303815290604052905090565b6000805461024c906103fc565b80601f0160208091040260200160405190810160405280929190818152602001828054610278906103fc565b80156102c55780601f1061029a576101008083540402835291602001916102c5565b820191906000526020600020905b8154815290600101906020018083116102a857829003601f168201915b505050505081565b634e487b7160e01b600052604160045260246000fd5b6000602082840312156102f557600080fd5b813567ffffffffffffffff81111561030c57600080fd5b8201601f8101841361031d57600080fd5b803567ffffffffffffffff811115610337576103376102cd565b604051601f8201601f19908116603f0116810167ffffffffffffffff81118282101715610366576103666102cd565b60405281815282820160200186101561037e57600080fd5b81602084016020830137600091810160200191909152949350505050565b6000815180845260005b818110156103c2576020818501810151868301820152016103a6565b506000602082860101526020601f19601f83011685010191505092915050565b6020815260006103f5602083018461039c565b9392505050565b600181811c9082168061041057607f821691505b60208210810361043057634e487b7160e01b600052602260045260246000fd5b50919050565b601f82111561048057806000526020600020601f840160051c8101602085101561045d5750805b601f840160051c820191505b8181101561047d5760008155600101610469565b50505b505050565b815167ffffffffffffffff81111561049f5761049f6102cd565b6104b3816104ad84546103fc565b84610436565b6020601f8211600181146104e757600083156104cf5750848201515b600019600385901b1c1916600184901b17845561047d565b600084815260208120601f198516915b8281101561051757878501518255602094850194600190920191016104f7565b50848210156105355786840151600019600387901b60f8161c191681555b50505050600190811b01905550565b604081526000610557604083018561039c565b905060018060a01b03831660208301529392505050565b6a02432b6363790333937b6960ad1b8152600080835461058d816103fc565b6001821680156105a457600181146105bf576105f5565b60ff198316600b870152600b821515830287010193506105f5565b86600052602060002060005b838110156105ea578154888201600b01526001909101906020016105cb565b5050600b8287010193505b50919594505050505056fea264697066735822122078adf1eb1db5e4fa1a69cd789ce8a07c65e401cf1008a07ee170e146734a6ad364736f6c634300081c0033",
  "linkReferences": {},
  "deployedLinkReferences": {}
}