{
  "_format": "hh-sol-artifact-1",
  "contractName": "TokenVault",
  "sourceName": "contracts/TokenVault.sol",
  "abi": [
    {
      "inputs": [
        {
          "internalType": "address",
          "name": "_stakingToken",
          "type": "address"
        },
        {
          "internalType": "address",
          "name": "_rewardToken",
          "type": "address"
        }
      ],
      "stateMutability": "nonpayable",
      "type": "constructor"
    },
    {
      "inputs": [
        {
          "internalType": "address",
          "name": "owner",
          "type": "address"
        }
      ],
      "name": "OwnableInvalidOwner",
      "type": "error"
    },
    {
      "inputs": [
        {
          "internalType": "address",
          "name": "account",
          "type": "address"
        }
      ],
      "name": "OwnableUnauthorizedAccount",
      "type": "error"
    },
    {
      "inputs": [],
      "name": "ReentrancyGuardReentrantCall",
      "type": "error"
    },
    {
      "anonymous": false,
      "inputs": [
        {
          "indexed": true,
          "internalType": "address",
          "name": "user",
          "type": "address"
        },
        {
          "indexed": false,
          "internalType": "uint256",
          "name": "amount",
          "type": "uint256"
        }
      ],
      "name": "EmergencyWithdraw",
      "type": "event"
    },
    {
      "anonymous": false,
      "inputs": [
        {
          "indexed": true,
          "internalType": "address",
          "name": "previousOwner",
          "type": "address"
        },
        {
          "indexed": true,
          "internalType": "address",
          "name": "newOwner",
          "type": "address"
        }
      ],
      "name": "OwnershipTransferred",
      "type": "event"
    },
    {
      "anonymous": false,
      "inputs": [
        {
          "indexed": true,
          "internalType": "uint256",
          "name": "proposalId",
          "type": "uint256"
        },
        {
          "indexed": false,
          "internalType": "string",
          "name": "description",
          "type": "string"
        }
      ],
      "name": "ProposalCreated",
      "type": "event"
    },
    {
      "anonymous": false,
      "inputs": [
        {
          "indexed": true,
          "internalType": "uint256",
          "name": "proposalId",
          "type": "uint256"
        }
      ],
      "name": "ProposalExecuted",
      "type": "event"
    },
    {
      "anonymous": false,
      "inputs": [
        {
          "indexed": true,
          "internalType": "address",
          "name": "user",
          "type": "address"
        },
        {
          "indexed": false,
          "internalType": "uint256",
          "name": "reward",
          "type": "uint256"
        }
      ],
      "name": "RewardClaimed",
      "type": "event"
    },
    {
      "anonymous": false,
      "inputs": [
        {
          "indexed": true,
          "internalType": "address",
          "name": "user",
          "type": "address"
        },
        {
          "indexed": false,
          "internalType": "uint256",
          "name": "amount",
          "type": "uint256"
        }
      ],
      "name": "Staked",
      "type": "event"
    },
    {
      "anonymous": false,
      "inputs": [
        {
          "indexed": true,
          "internalType": "uint256",
          "name": "proposalId",
          "type": "uint256"
        },
        {
          "indexed": true,
          "internalType": "address",
          "name": "voter",
          "type": "address"
        },
        {
          "indexed": false,
          "internalType": "bool",
          "name": "support",
          "type": "bool"
        }
      ],
      "name": "Voted",
      "type": "event"
    },
    {
      "anonymous": false,
      "inputs": [
        {
          "indexed": true,
          "internalType": "address",
          "name": "user",
          "type": "address"
        },
        {
          "indexed": false,
          "internalType": "uint256",
          "name": "amount",
          "type": "uint256"
        }
      ],
      "name": "Withdrawn",
      "type": "event"
    },
    {
      "inputs": [],
      "name": "BASIS_POINTS",
      "outputs": [
        {
          "internalType": "uint256",
          "name": "",
          "type": "uint256"
        }
      ],
      "stateMutability": "view",
      "type": "function"
    },
    {
      "inputs": [],
      "name": "REWARD_DURATION",
      "outputs": [
        {
          "internalType": "uint256",
          "name": "",
          "type": "uint256"
        }
      ],
      "stateMutability": "view",
      "type": "function"
    },
    {
      "inputs": [],
      "name": "claimReward",
      "outputs": [],
      "stateMutability": "nonpayable",
      "type": "function"
    },
    {
      "inputs": [
        {
          "internalType": "string",
          "name": "description",
          "type": "string"
        }
      ],
      "name": "createProposal",
      "outputs": [],
      "stateMutability": "nonpayable",
      "type": "function"
    },
    {
      "inputs": [
        {
          "internalType": "address",
          "name": "user",
          "type": "address"
        }
      ],
      "name": "earned",
      "outputs": [
        {
          "internalType": "uint256",
          "name": "",
          "type": "uint256"
        }
      ],
      "stateMutability": "view",
      "type": "function"
    },
    {
      "inputs": [],
      "name": "emergencyWithdraw",
      "outputs": [],
      "stateMutability": "nonpayable",
      "type": "function"
    },
    {
      "inputs": [
        {
          "internalType": "uint256",
          "name": "proposalId",
          "type": "uint256"
        }
      ],
      "name": "executeProposal",
      "outputs": [],
      "stateMutability": "nonpayable",
      "type": "function"
    },
    {
      "inputs": [
        {
          "internalType": "uint256",
          "name": "proposalId",
          "type": "uint256"
        }
      ],
      "name": "getProposal",
      "outputs": [
        {
          "internalType": "string",
          "name": "description",
          "type": "string"
        },
        {
          "internalType": "uint256",
          "name": "forVotes",
          "type": "uint256"
        },
        {
          "internalType": "uint256",
          "name": "againstVotes",
          "type": "uint256"
        },
        {
          "internalType": "uint256",
          "name": "startTime",
          "type": "uint256"
        },
        {
          "internalType": "bool",
          "name": "executed",
          "type": "bool"
        },
        {
          "internalType": "bool",
          "name": "canceled",
          "type": "bool"
        }
      ],
      "stateMutability": "view",
      "type": "function"
    },
    {
      "inputs": [
        {
          "internalType": "address",
          "name": "user",
          "type": "address"
        }
      ],
      "name": "getUserStake",
      "outputs": [
        {
          "internalType": "uint256",
          "name": "amount",
          "type": "uint256"
        },
        {
          "internalType": "uint256",
          "name": "rewardDebt",
          "type": "uint256"
        },
        {
          "internalType": "uint256",
          "name": "lastClaimTime",
          "type": "uint256"
        },
        {
          "internalType": "bool",
          "name": "isStaking",
          "type": "bool"
        }
      ],
      "stateMutability": "view",
      "type": "function"
    },
    {
      "inputs": [
        {
          "internalType": "uint256",
          "name": "proposalId",
          "type": "uint256"
        },
        {
          "internalType": "address",
          "name": "user",
          "type": "address"
        }
      ],
      "name": "hasVoted",
      "outputs": [
        {
          "internalType": "bool",
          "name": "",
          "type": "bool"
        }
      ],
      "stateMutability": "view",
      "type": "function"
    },
    {
      "inputs": [],
      "name": "lastUpdateTime",
      "outputs": [
        {
          "internalType": "uint256",
          "name": "",
          "type": "uint256"
        }
      ],
      "stateMutability": "view",
      "type": "function"
    },
    {
      "inputs": [],
      "name": "owner",
      "outputs": [
        {
          "internalType": "address",
          "name": "",
          "type": "address"
        }
      ],
      "stateMutability": "view",
      "type": "function"
    },
    {
      "inputs": [],
      "name": "proposalCount",
      "outputs": [
        {
          "internalType": "uint256",
          "name": "",
          "type": "uint256"
        }
      ],
      "stateMutability": "view",
      "type": "function"
    },
    {
      "inputs": [
        {
          "internalType": "uint256",
          "name": "",
          "type": "uint256"
        }
      ],
      "name": "proposals",
      "outputs": [
        {
          "internalType": "string",
          "name": "description",
          "type": "string"
        },
        {
          "internalType": "uint256",
          "name": "forVotes",
          "type": "uint256"
        },
        {
          "internalType": "uint256",
          "name": "againstVotes",
          "type": "uint256"
        },
        {
          "internalType": "uint256",
          "name": "startTime",
          "type": "uint256"
        },
        {
          "internalType": "bool",
          "name": "executed",
          "type": "bool"
        },
        {
          "internalType": "bool",
          "name": "canceled",
          "type": "bool"
        }
      ],
      "stateMutability": "view",
      "type": "function"
    },
    {
      "inputs": [],
      "name": "quorum",
      "outputs": [
        {
          "internalType": "uint256",
          "name": "",
          "type": "uint256"
        }
      ],
      "stateMutability": "view",
      "type": "function"
    },
    {
      "inputs": [],
      "name": "renounceOwnership",
      "outputs": [],
      "stateMutability": "nonpayable",
      "type": "function"
    },
    {
      "inputs": [],
      "name": "rewardPerToken",
      "outputs": [
        {
          "internalType": "uint256",
          "name": "",
          "type": "uint256"
        }
      ],
      "stateMutability": "view",
      "type": "function"
    },
    {
      "inputs": [],
      "name": "rewardPerTokenStored",
      "outputs": [
        {
          "internalType": "uint256",
          "name": "",
          "type": "uint256"
        }
      ],
      "stateMutability": "view",
      "type": "function"
    },
    {
      "inputs": [],
      "name": "rewardRate",
      "outputs": [
        {
          "internalType": "uint256",
          "name": "",
          "type": "uint256"
        }
      ],
      "stateMutability": "view",
      "type": "function"
    },
    {
      "inputs": [],
      "name": "rewardToken",
      "outputs": [
        {
          "internalType": "contract IERC20",
          "name": "",
          "type": "address"
        }
      ],
      "stateMutability": "view",
      "type": "function"
    },
    {
      "inputs": [
        {
          "internalType": "uint256",
          "name": "newQuorum",
          "type": "uint256"
        }
      ],
      "name": "setQuorum",
      "outputs": [],
      "stateMutability": "nonpayable",
      "type": "function"
    },
    {
      "inputs": [
        {
          "internalType": "uint256",
          "name": "newRate",
          "type": "uint256"
        }
      ],
      "name": "setRewardRate",
      "outputs": [],
      "stateMutability": "nonpayable",
      "type": "function"
    },
    {
      "inputs": [
        {
          "internalType": "uint256",
          "name": "newPeriod",
          "type": "uint256"
        }
      ],
      "name": "setVotingPeriod",
      "outputs": [],
      "stateMutability": "nonpayable",
      "type": "function"
    },
    {
      "inputs": [
        {
          "internalType": "uint256",
          "name": "amount",
          "type": "uint256"
        }
      ],
      "name": "stake",
      "outputs": [],
      "stateMutability": "nonpayable",
      "type": "function"
    },
    {
      "inputs": [],
      "name": "stakingToken",
      "outputs": [
        {
          "internalType": "contract IERC20",
          "name": "",
          "type": "address"
        }
      ],
      "stateMutability": "view",
      "type": "function"
    },
    {
      "inputs": [],
      "name": "totalStaked",
      "outputs": [
        {
          "internalType": "uint256",
          "name": "",
          "type": "uint256"
        }
      ],
      "stateMutability": "view",
      "type": "function"
    },
    {
      "inputs": [
        {
          "internalType": "address",
          "name": "newOwner",
          "type": "address"
        }
      ],
      "name": "transferOwnership",
      "outputs": [],
      "stateMutability": "nonpayable",
      "type": "function"
    },
    {
      "inputs": [
        {
          "internalType": "address",
          "name": "",
          "type": "address"
        }
      ],
      "name": "userStakes",
      "outputs": [
        {
          "internalType": "uint256",
          "name": "amount",
          "type": "uint256"
        },
        {
          "internalType": "uint256",
          "name": "rewardDebt",
          "type": "uint256"
        },
        {
          "internalType": "uint256",
          "name": "lastClaimTime",
          "type": "uint256"
        },
        {
          "internalType": "bool",
          "name": "isStaking",
          "type": "bool"
        }
      ],
      "stateMutability": "view",
      "type": "function"
    },
    {
      "inputs": [
        {
          "internalType": "uint256",
          "name": "proposalId",
          "type": "uint256"
        },
        {
          "internalType": "bool",
          "name": "support",
          "type": "bool"
        }
      ],
      "name": "vote",
      "outputs": [],
      "stateMutability": "nonpayable",
      "type": "function"
    },
    {
      "inputs": [],
      "name": "votingPeriod",
      "outputs": [
        {
          "internalType": "uint256",
          "name": "",
          "type": "uint256"
        }
      ],
      "stateMutability": "view",
      "type": "function"
    },
    {
      "inputs": [
        {
          "internalType": "uint256",
          "name": "amount",
          "type": "uint256"
        }
      ],
      "name": "withdraw",
      "outputs": [],
      "stateMutability": "nonpayable",
      "type": "function"
    },
    {
      "inputs": [
        {
          "internalType": "address",
          "name": "token",
          "type": "address"
        },
        {
          "internalType": "uint256",
          "name": "amount",
          "type": "uint256"
        }
      ],
      "name": "withdrawStuckTokens",
      "outputs": [],
      "stateMutability": "nonpayable",
      "type": "function"
    }
  ],
  "bytecode": "0x608060405260646005556203f480600a55683635c9adc5dea00000600b5534801561002957600080fd5b50604051611c39380380611c3983398101604081905261004891610120565b6001600055338061007357604051631e4fbdf760e01b81526000600482015260240160405180910390fd5b61007c816100b2565b50600280546001600160a01b039384166001600160a01b0319918216179091556003805492909316911617905542600655610153565b600180546001600160a01b038381166001600160a01b0319831681179093556040519116919082907f8be0079c531659141344cd1fd0a4f28419497f9722a3daafe3b4186f6b6457e090600090a35050565b80516001600160a01b038116811461011b57600080fd5b919050565b6000806040838503121561013357600080fd5b61013c83610104565b915061014a60208401610104565b90509250929050565b611ad7806101626000396000f3fe608060405234801561001057600080fd5b50600436106101ef5760003560e01c8063a694fc3a1161010f578063cd3daf9d116100a2578063e1f1c4a711610071578063e1f1c4a714610450578063ea0217cf14610459578063f2fde38b1461046c578063f7c618c11461047f57600080fd5b8063cd3daf9d1461042e578063da35c66414610436578063db2e21bc1461043f578063df136d651461044757600080fd5b8063c1ba4e59116100de578063c1ba4e59146103ec578063c7f758a8146103ff578063c8f33c9114610412578063c9d27afe1461041b57600080fd5b8063a694fc3a1461037c578063b88a802f1461038f578063bbadc93a14610397578063bd61f0a6146103d957600080fd5b80635ade228a11610187578063817b1cd211610156578063817b1cd2146102f55780638da5cb5b146102fe5780638da7ad231461030f5780639e447fc61461036957600080fd5b80635ade228a146102af578063715018a6146102b957806372f702f3146102c15780637b0a47ee146102ec57600080fd5b80631703a018116101c35780631703a0181461025d5780632e1a7d4d14610266578063438596321461027957806349c2a1a61461029c57600080fd5b80628cc262146101f4578063013cf08b1461021a57806302a251a31461023f5780630d61b51914610248575b600080fd5b6102076102023660046115f2565b610492565b6040519081526020015b60405180910390f35b61022d61022836600461160d565b6104e2565b6040516102119695949392919061166c565b610207600a5481565b61025b61025636600461160d565b6105a5565b005b610207600b5481565b61025b61027436600461160d565b6107c5565b61028c6102873660046116ac565b6109c6565b6040519015158152602001610211565b61025b6102aa3660046116ee565b610a1b565b61020762278d0081565b61025b610b09565b6002546102d4906001600160a01b031681565b6040516001600160a01b039091168152602001610211565b61020760055481565b61020760045481565b6001546001600160a01b03166102d4565b61034761031d3660046115f2565b60086020526000908152604090208054600182015460028301546003909301549192909160ff1684565b6040805194855260208501939093529183015215156060820152608001610211565b61025b61037736600461160d565b610b1d565b61025b61038a36600461160d565b610b6c565b61025b610cde565b6103476103a53660046115f2565b6001600160a01b03166000908152600860205260409020805460018201546002830154600390930154919390929160ff1690565b61025b6103e73660046117a7565b610e81565b61025b6103fa36600461160d565b610f3b565b61022d61040d36600461160d565b610f48565b61020760065481565b61025b6104293660046117df565b61104d565b610207611270565b61020760095481565b61025b6112ca565b61020760075481565b61020761271081565b61025b61046736600461160d565b61144a565b61025b61047a3660046115f2565b6114aa565b6003546102d4906001600160a01b031681565b6001600160a01b03811660009081526008602052604081206001810154612710906104bb611270565b6104c59190611825565b82546104d1919061183e565b6104db9190611855565b9392505050565b600c602052600090815260409020805481906104fd90611877565b80601f016020809104026020016040519081016040528092919081815260200182805461052990611877565b80156105765780601f1061054b57610100808354040283529160200191610576565b820191906000526020600020905b81548152906001019060200180831161055957829003601f168201915b505050506001830154600284015460038501546004909501549394919390925060ff8082169161010090041686565b6105ad6114e5565b8060095481106105d85760405162461bcd60e51b81526004016105cf906118b1565b60405180910390fd5b6000828152600c60205260409020600481015460ff161561062e5760405162461bcd60e51b815260206004820152601060248201526f105b1c9958591e48195e1958dd5d195960821b60448201526064016105cf565b6004810154610100900460ff161561067c5760405162461bcd60e51b8152602060048201526011602482015270141c9bdc1bdcd85b0818d85b98d95b1959607a1b60448201526064016105cf565b600a54816003015461068e91906118e8565b4210156106dd5760405162461bcd60e51b815260206004820152601760248201527f566f74696e6720706572696f64206e6f7420656e64656400000000000000000060448201526064016105cf565b806002015481600101541161072c5760405162461bcd60e51b815260206004820152601560248201527450726f706f73616c20646964206e6f74207061737360581b60448201526064016105cf565b600b548160020154826001015461074391906118e8565b10156107865760405162461bcd60e51b8152602060048201526012602482015271145d5bdc9d5b481b9bdd081c995858da195960721b60448201526064016105cf565b60048101805460ff1916600117905560405183907f712ae1383f79ac853f8d882153778e0260ef8f03b504e2866e0593e04d2b291f90600090a2505050565b6107cd611512565b3360009081526008602052604090206003015460ff166107ff5760405162461bcd60e51b81526004016105cf906118fb565b3360009081526008602052604090208161084f5760405162461bcd60e51b8152602060048201526011602482015270043616e6e6f74207769746864726177203607c1b60448201526064016105cf565b80548211156108a05760405162461bcd60e51b815260206004820152601a60248201527f496e73756666696369656e74207374616b656420616d6f756e7400000000000060448201526064016105cf565b6108a93361153c565b818160000160008282546108bd9190611825565b9250508190555081600460008282546108d69190611825565b909155505080546000036108f15760038101805460ff191690555b60025460405163a9059cbb60e01b8152336004820152602481018490526001600160a01b039091169063a9059cbb906044016020604051808303816000875af1158015610942573d6000803e3d6000fd5b505050506040513d601f19601f820116820180604052508101906109669190611921565b6109825760405162461bcd60e51b81526004016105cf9061193e565b60405182815233907f7084f5476618d8e60b11ef0d7d3f06914655adb8793e28ff7f018d4c76d505d5906020015b60405180910390a2506109c36001600055565b50565b60008260095481106109ea5760405162461bcd60e51b81526004016105cf906118b1565b50506000918252600c602090815260408084206001600160a01b039390931684526005909201905290205460ff1690565b3360009081526008602052604090206003015460ff16610a4d5760405162461bcd60e51b81526004016105cf906118fb565b6000815111610a925760405162461bcd60e51b815260206004820152601160248201527022b6b83a3c903232b9b1b934b83a34b7b760791b60448201526064016105cf565b6009805460009182610aa383611967565b909155506000818152600c6020526040902090915080610ac384826119cf565b5042600382015560405182907f9c770c289ab5bf7e57cb1d23c8ceae993aea46eb64847072fd3d78ca60d3e43290610afc908690611a8e565b60405180910390a2505050565b610b116114e5565b610b1b6000611584565b565b610b256114e5565b6103e8811115610b675760405162461bcd60e51b815260206004820152600d60248201526c0a4c2e8ca40e8dede40d0d2ced609b1b60448201526064016105cf565b600555565b610b74611512565b60008111610bb55760405162461bcd60e51b815260206004820152600e60248201526d043616e6e6f74207374616b6520360941b60448201526064016105cf565b6002546040516323b872dd60e01b8152336004820152306024820152604481018390526001600160a01b03909116906323b872dd906064016020604051808303816000875af1158015610c0c573d6000803e3d6000fd5b505050506040513d601f19601f82011682018060405250810190610c309190611921565b610c4c5760405162461bcd60e51b81526004016105cf9061193e565b610c553361153c565b336000908152600860205260408120805490918391839190610c789084906118e8565b909155505060038101805460ff1916600117905542600282015560048054839190600090610ca79084906118e8565b909155505060405182815233907f9e71bc8eea02a63969f509818f2dafb9254532904319f9dbda79b67bd34a5f3d906020016109b0565b610ce6611512565b3360009081526008602052604090206003015460ff16610d185760405162461bcd60e51b81526004016105cf906118fb565b610d213361153c565b336000908152600860205260409020600181015480610d785760405162461bcd60e51b81526020600482015260136024820152724e6f207265776172647320746f20636c61696d60681b60448201526064016105cf565b6000600183015542600283015560035460405163a9059cbb60e01b8152336004820152602481018390526001600160a01b039091169063a9059cbb906044016020604051808303816000875af1158015610dd6573d6000803e3d6000fd5b505050506040513d601f19601f82011682018060405250810190610dfa9190611921565b610e3f5760405162461bcd60e51b815260206004820152601660248201527514995dd85c99081d1c985b9cd9995c8819985a5b195960521b60448201526064016105cf565b60405181815233907f106f923f993c2149d49b4255ff723acafa1f2d94393f561d3eda32ae348f7241906020015b60405180910390a25050610b1b6001600055565b610e896114e5565b816001600160a01b031663a9059cbb610eaa6001546001600160a01b031690565b6040516001600160e01b031960e084901b1681526001600160a01b039091166004820152602481018490526044016020604051808303816000875af1158015610ef7573d6000803e3d6000fd5b505050506040513d601f19601f82011682018060405250810190610f1b9190611921565b610f375760405162461bcd60e51b81526004016105cf9061193e565b5050565b610f436114e5565b600b55565b60606000806000806000866009548110610f745760405162461bcd60e51b81526004016105cf906118b1565b6000888152600c6020526040902060018101546002820154600383015460048401548454859493929160ff8082169261010090920416908690610fb690611877565b80601f0160208091040260200160405190810160405280929190818152602001828054610fe290611877565b801561102f5780601f106110045761010080835404028352916020019161102f565b820191906000526020600020905b81548152906001019060200180831161101257829003601f168201915b50505050509550975097509750975097509750505091939550919395565b3360009081526008602052604090206003015460ff1661107f5760405162461bcd60e51b81526004016105cf906118fb565b8160095481106110a15760405162461bcd60e51b81526004016105cf906118b1565b6000838152600c60205260409020600481015484919060ff161580156110d157506004810154610100900460ff16155b6111135760405162461bcd60e51b815260206004820152601360248201527250726f706f73616c206e6f742061637469766560681b60448201526064016105cf565b600a54816003015461112591906118e8565b42106111695760405162461bcd60e51b8152602060048201526013602482015272159bdd1a5b99c81c195c9a5bd908195b991959606a1b60448201526064016105cf565b6000858152600c60209081526040808320338452600581019092529091205460ff16156111c85760405162461bcd60e51b815260206004820152600d60248201526c105b1c9958591e481d9bdd1959609a1b60448201526064016105cf565b3360009081526005820160209081526040808320805460ff1916600117905560089091529020548515611214578082600101600082825461120991906118e8565b9091555061122e9050565b8082600201600082825461122891906118e8565b90915550505b6040518615158152339088907ff2913dbe661ee2acc4a046d8fbcdc792373bda34c41c6086484b5345e5785e5f9060200160405180910390a350505050505050565b6000600454600003611283575060075490565b6004546127106005546006544261129a9190611825565b6112a4919061183e565b6112ae919061183e565b6112b89190611855565b6007546112c591906118e8565b905090565b6112d2611512565b3360009081526008602052604090206003015460ff166113045760405162461bcd60e51b81526004016105cf906118fb565b3360009081526008602052604090208054806113585760405162461bcd60e51b81526020600482015260136024820152724e6f7468696e6720746f20776974686472617760681b60448201526064016105cf565b60008083556001830181905560038301805460ff1916905560048054839290611382908490611825565b909155505060025460405163a9059cbb60e01b8152336004820152602481018390526001600160a01b039091169063a9059cbb906044016020604051808303816000875af11580156113d8573d6000803e3d6000fd5b505050506040513d601f19601f820116820180604052508101906113fc9190611921565b6114185760405162461bcd60e51b81526004016105cf9061193e565b60405181815233907f5fafa99d0643513820be26656b45130b01e1c03062e1266bf36f88cbd3bd969590602001610e6d565b6114526114e5565b620151808110158015611468575062278d008111155b6114a55760405162461bcd60e51b815260206004820152600e60248201526d125b9d985b1a59081c195c9a5bd960921b60448201526064016105cf565b600a55565b6114b26114e5565b6001600160a01b0381166114dc57604051631e4fbdf760e01b8152600060048201526024016105cf565b6109c381611584565b6001546001600160a01b03163314610b1b5760405163118cdaa760e01b81523360048201526024016105cf565b60026000540361153557604051633ee5aeb560e01b815260040160405180910390fd5b6002600055565b611544611270565b600755426006556001600160a01b038116156109c3576001600160a01b038116600090815260086020526040902061157b82610492565b60019091015550565b600180546001600160a01b038381166001600160a01b0319831681179093556040519116919082907f8be0079c531659141344cd1fd0a4f28419497f9722a3daafe3b4186f6b6457e090600090a35050565b80356001600160a01b03811681146115ed57600080fd5b919050565b60006020828403121561160457600080fd5b6104db826115d6565b60006020828403121561161f57600080fd5b5035919050565b6000815180845260005b8181101561164c57602081850181015186830182015201611630565b506000602082860101526020601f19601f83011685010191505092915050565b60c08152600061167f60c0830189611626565b6020830197909752506040810194909452606084019290925215156080830152151560a090910152919050565b600080604083850312156116bf57600080fd5b823591506116cf602084016115d6565b90509250929050565b634e487b7160e01b600052604160045260246000fd5b60006020828403121561170057600080fd5b813567ffffffffffffffff81111561171757600080fd5b8201601f8101841361172857600080fd5b803567ffffffffffffffff811115611742576117426116d8565b604051601f8201601f19908116603f0116810167ffffffffffffffff81118282101715611771576117716116d8565b60405281815282820160200186101561178957600080fd5b81602084016020830137600091810160200191909152949350505050565b600080604083850312156117ba57600080fd5b6117c3836115d6565b946020939093013593505050565b80151581146109c357600080fd5b600080604083850312156117f257600080fd5b823591506020830135611804816117d1565b809150509250929050565b634e487b7160e01b600052601160045260246000fd5b818103818111156118385761183861180f565b92915050565b80820281158282048414176118385761183861180f565b60008261187257634e487b7160e01b600052601260045260246000fd5b500490565b600181811c9082168061188b57607f821691505b6020821081036118ab57634e487b7160e01b600052602260045260246000fd5b50919050565b60208082526017908201527f50726f706f73616c20646f6573206e6f74206578697374000000000000000000604082015260600190565b808201808211156118385761183861180f565b6020808252600c908201526b2737ba10309039ba30b5b2b960a11b604082015260600190565b60006020828403121561193357600080fd5b81516104db816117d1565b6020808252600f908201526e151c985b9cd9995c8819985a5b1959608a1b604082015260600190565b6000600182016119795761197961180f565b5060010190565b601f8211156119ca57806000526020600020601f840160051c810160208510156119a75750805b601f840160051c820191505b818110156119c757600081556001016119b3565b50505b505050565b815167ffffffffffffffff8111156119e9576119e96116d8565b6119fd816119f78454611877565b84611980565b6020601f821160018114611a315760008315611a195750848201515b600019600385901b1c1916600184901b1784556119c7565b600084815260208120601f198516915b82811015611a615787850151825560209485019460019092019101611a41565b5084821015611a7f5786840151600019600387901b60f8161c191681555b50505050600190811b01905550565b6020815260006104db602083018461162656fea2646970667358221220e732736398b0b30c0a021d8376e7dbc30f06bab819fc2a01df85b09648b9a60664736f6c634300081c0033",
  "linkReferences": {},
  "deployedLinkReferences": {}
}